:020000021000EC
:109000000000012009930100319301003393010016
:1090100035930100379301003993010000000000EF
:109020000000000000000000000000003B93010071
:109030003D930100000000003F93010041930100B7
:1090400043930100439301004393010043930100C4
:1090500043930100439301004393010043930100B4
:1090600043930100439301004393010043930100A4
:109070004393010043930100439301004393010094
:109080004393010043930100439301004393010084
:109090004393010043930100439301004393010074
:1090A0004393010043930100439301004393010064
:1090B0004393010043930100000000000000000002
:1090C0004393010043930100439301004393010044
:1090D000439301004393010043930100000000000B
:1090E0000000000000000000000000000000000080
:1090F0000000000000000000000000000000000070
:10910000000000000000000000000000000000005F
:10911000000000000000000000000000000000004F
:10912000000000000000000000000000000000003F
:10913000000000000000000000000000000000002F
:10914000000000000000000000000000000000001F
:10915000000000000000000000000000000000000F
:1091600000000000000000000000000000000000FF
:1091700000000000000000000000000000000000EF
:1091800000000000000000000000000000000000DF
:1091900000000000000000000000000000000000CF
:1091A00000000000000000000000000000000000BF
:1091B00000000000000000000000000000000000AF
:1091C000000000000000000000000000000000009F
:1091D000000000000000000000000000000000008F
:1091E000000000000000000000000000000000007F
:1091F000000000000000000000000000000000006F
:109200000348044B834202D0034B03B11847704715
:109210006000002060000020000000000548064BB0
:109220001B1AD90F01EBA301491002D0034B03B164
:109230001847704760000020600000200000000018
:1092400010B5064C237843B9FFF7DAFF044B13B18E
:109250000448AFF300800123237010BD600000209C
:1092600000000000A0B8010008B5054B1BB105497E
:109270000548AFF30080BDE80840FFF7CFBF00BF4F
:109280000000000064000020A0B80100A3F5803AAF
:10929000704700BF174B002B08BF134B9D46FFF7CD
:1092A000F5FF00218B460F461348144A121A00F0AE
:1092B000B9FD0E4B002B00D098470D4B002B00D072
:1092C00098470020002104000D000D48002802D01E
:1092D0000C48AFF3008000F0ADFD2000290000F045
:1092E000DBFC00F057FD00BF00000800000000009C
:1092F000000000000000012060000020302300205A
:1093000000000000000000000649074A074B9B1AB6
:1093100003DD043BC858D050FBDC00F03BF8FFF7FE
:10932000B9FF0000ACB80100000000206000002080
:10933000FEE7FEE7FEE7FEE7FEE7FEE7FEE7FEE705
:10934000FEE7FEE74FF08053D3F83001421C04BF24
:109350004FF0704393F8E00F831F58425841704715
:109360004FF0704393F8E02F062A08D1D3F8E80FA6
:1093700000F0F000A0F1300358425841704700203F
:1093800070470000024AD2F80034002BFBD070472F
:1093900000E0014010B5FFF7D5FF40B14FF080531A
:1093A0008F4AD3F82433C3F30423C2F84035FFF7C0
:1093B000D7FF10B18B4B8C4A5A67FFF7C3FF48B1F8
:1093C0004FF080534FF08042D3F84432C3F342331E
:1093D000C2F83C35FFF7C4FF30B1844AD2F8FC3004
:1093E00023F08073C2F8FC30FFF7ACFF40B14FF0C0
:1093F00080430022C3F80C21C3F81021C3F838259C
:10940000FFF7AEFF20B14FF080430322C3F8A02541
:10941000FFF7A6FF60B1764B0522C3F810260122A4
:10942000C3F888260022C3F818263F22C3F8142662
:109430004FF08053D3F83021511C09BF4FF07043D7
:10944000D3F8343193F8E02FD3F8E83F08BFC3F3E3
:109450000313062A49D1033B012B46D94FF0805212
:10946000644BD2F80414C3F82015D2F80814C3F8DA
:109470002415D2F80C14C3F82815D2F81014C3F828
:109480002C15D2F81414C3F83015D2F81814C3F8F8
:109490003415D2F81C14C3F84015D2F82014C3F8C0
:1094A0004415D2F82414C3F84815D2F82814C3F888
:1094B0004C15D2F82C14C3F85015D2F83014C3F858
:1094C0005415D2F83414C3F86015D2F83814C3F820
:1094D0006415D2F83C14C3F86815D2F84014C3F8E8
:1094E0006C15D2F84424C3F87025FFF72BFF48B160
:1094F0004FF080534FF08042D3F8583203F04F03BF
:10950000C2F8E43EFFF71EFF48B14FF08043D3F8A6
:109510000024D20744BF6FF00102C3F800244FF0CB
:109520008053D3F83021062A0BD1D3F83431033BD2
:10953000022B81BF304AD2F83C3743F48063C2F833
:109540003C372A4AD2F8883043F47003C2F8883096
:10955000BFF34F8FBFF36F8F4FF08053D3F830219D
:10956000062A0CD1D3F83431033B032B81BF4FF0D3
:109570001023D3F808224FF08043C3F858254FF04A
:109580001023D3F80022002A03DBD3F80432002B87
:1095900022DA1A4901234FF01020C1F804351524AE
:1095A000FFF7F0FEC0F80042FFF7ECFEC0F80442FF
:1095B000FFF7E8FE0023C1F80435FFF7E3FEBFF331
:1095C0004F8F0A490E4BCA6802F4E0621343CB6026
:1095D000BFF34F8F00BFFDE70A4B0B4A1A6010BD67
:1095E0000030014000C007400DF0ADBA00ED00E0D2
:1095F0000050004000C000400010004000E001406A
:109600000400FA05000000200090D0034FF0A043B2
:109610000322C3F818270C22C3F82027094B06227F
:10962000C3F80C250822C3F81425074AC3F82425DB
:109630000422C3F80025002101229A60C3F8081112
:109640001A6070470020004000705F07074B013828
:10965000002110F8012F02B97047C3F81C25C3F888
:109660001C11D3F81C21002AFBD0F2E70020004097
:1096700010B50C4B0C4A1B780C4852F823100C4ABE
:1096800014780C4A9AB0002C18BF0246CDE900129B
:1096900002A8094A602100F08FFB02A8FFF7D6FF5D
:1096A0001AB010BD0500002078B8010070B70100A5
:1096B0000400002073B7010077B70100064A034693
:1096C000D2F8080130B10021C2F80811D2F81825EB
:1096D0001A700120704700BF002000404FF0A043E7
:1096E0001022C3F808250322C3F81027104A0423C8
:1096F000C2F860350123C2F8003514210023C2F8F6
:109700000435C2F80C35C2F80815C2F81035C2F895
:109710001435C2F82835C2F82C35064A4FF40041FA
:109720000133B3F5756F22F8021BF9D1704700BF02
:1097300000C00140800000209F2830B517D843EAC0
:10974000012343EA02420A4B302101FB003048F278
:109750000505172348F20E0422FA03F111F0010F58
:109760000CBF29462146013B20F8021BF4D230BD34
:10977000800000200000000030B52DED048B21EEAC
:10978000208ADFED519A85B0F0EE408A18EE100A7B
:10979000B0EE419A01F082FCC8EEA97A04460D466B
:1097A00017EE900A01F07AFC9FED451B41EC100B7F
:1097B00001F03AF8454B002251EC100B01F00EFB82
:1097C00041EC100B01F066F8404953EC102B0020DF
:1097D00001F004FB22462B4601F0B8FC01F066FFC5
:1097E000F5EEC08AF1EE10FA07EE900A39EE481A4B
:1097F00020DBF4EEE98AF1EE10FA1ED49FED347A04
:10980000F4EEC78AF1EE10FA44D49FED327AF4EE0A
:10981000C78AF1EE10FA42D49FED2F7AF4EEC78A90
:10982000F1EE10FA40D49FED2D7AF4EEC78AF1EEF6
:1098300010FA3ED49FED2A7A03E0B0EE677ADFEDAE
:10984000287ADFED286A38EE018A37EE017A28EEB1
:10985000268A27EE267ABCEEC86A77EE817ABCEEBD
:10986000C77A8DED006A9DF800308DED017A67EEC4
:10987000A67A0020FCEEE77A63F307009DF8043037
:1098800063F30F2017EE903A63F3174005B0BDEC79
:10989000048B30BDB0EE487AB0EE678ACFE7B0EE09
:1098A000487A9FED0F8ACCE7B0EE677AF0EE487AFF
:1098B000F7E7B0EE487AB0EE678AF0EE477AB9E79C
:1098C0000000000000000040000070420000F03F77
:1098D0000000F04200003443000070430000964353
:1098E0000000000000007F4330B52DED068B794B62
:1098F0001C7883B0CCB9002320461A46194601349F
:10990000FFF71AFFA02CF6D1734B0022C3F81021E9
:10991000724AC3F820254FF47562C3F8242501224A
:109920009A6003B0BDEC068B30BD6D4D9FED6D9A16
:109930002B78022B3ED19FED6C8A6C4DDFED6C8A4B
:10994000002407EE904AF8EEE77ADFED670A67EE4B
:10995000887A87EE890AD5ED007A30EE270A00F082
:109960003FFFB0EE681AF7EE000AFFF705FFC0F3FD
:109970000722C0F307438DF804008DF805208DF809
:109980000630C1B2DBB22046D2B20134FFF7D4FEBA
:10999000A02CD6D1D5ED007AB1EE087A77EE877A91
:1099A000F4EEC87AF1EE10FAA8BF77EEC87AC5EDEA
:1099B000007AA9E7002B65D1DFED4E9A9FED4E8A24
:1099C0009FED4EAA0024F7EE008A07EE904AB8EE0B
:1099D000E70A287860EE0A7A87EE897AFDEEC77A80
:1099E00017EE903AF8EEE77A5A1C572A37EE677A64
:1099F000A8BF5722032838EEC76A48D0002846D0AF
:109A00003F4901EB830301EB8201D1ED007AD3EDF5
:109A1000006A67EE277A46EE267A77EEC87A79EE04
:109A2000C86A87EEA67AB5EEC07AF1EE10FA3ED497
:109A3000B4EEE87AF1EE10FAD4BFF0EE477AF0EE29
:109A4000687AB8BB9FED2F7A9FED2F0A9FED2F1AF2
:109A500007EE870AF7EE000AFFF78EFEC0F3072233
:109A6000C0F307438DF804008DF805208DF806300B
:109A7000C1B2D2B22046DBB20134FFF75DFEA02CAA
:109A8000A3D141E79FED228AFBEE049A98E7214992
:109A9000CB5C06EE903A8B5C07EE903AF8EE677A74
:109AA000F8EE666A67EEC77A46EEC67AB5E7DFED8E
:109AB0001A7AC6E79FED197A9FED191A20EE070A68
:109AC0009FED187A80EE090A07EE871AF7EE000A72
:109AD000C2E700BF0400002000C001408000002059
:109AE0000500002000001F430000B4437C0000205C
:109AF000CDCC4C3E000096C20000BEC20000AE427B
:109B0000D01F0020000034C3000034438FC2753DD5
:109B10000000B4C230210020000000000000874394
:109B20008FC2F53CB91E453F074B012200215A6008
:109B3000C3F804150321C3F808150421C3F8101550
:109B4000DA601A60704700BF00800040044B0122B9
:109B50001A64D3F840054FF47A73B0FBF3F0704702
:109B600000800040064B01221A61D3F81021002A20
:109B7000FBD00122C3F8FC2F0322C3F81025704745
:109B800000100040F0B54FF08043D3F80C2402F0F1
:109B90000112B2F1011F05D001221A60D3F80C2482
:109BA000D203FBD500221348134B4025144616461A
:109BB0000121C3F80825C3F85455C3F80061596062
:109BC000D3F80071002FFBD0C3F81C415961D3F8C2
:109BD0001C71002FFBD0D3F8487500F8017BC3F847
:109BE00010411961D3F81071002FFBD00132582AAF
:109BF000DFD1F0BD88210020001000402DE9F041A8
:109C0000204B1B782BB3032B26D0082501260020E0
:109C1000DFF880C01C4F1D4C1D494FF6FF7E80466B
:109C20001CF8012B14F8013B07EE902AF8EE677A36
:109C30009A42F1EE677AE7EC017A10D804F8012C29
:109C4000A1F800800130582801F10201E8D1BDE8F7
:109C5000F08101250326DAE702252E46D7E70A8898
:109C6000724508D17E2BEDD82B447F2B28BF7F2354
:109C700004F8013CE6E7013292B2B2420A80E1D92F
:109C8000F0E700BF05000020D01F00203021002099
:109C9000201F00208821002073B53548354D364EF1
:109CA000FFF742FFFFF7B2FCFFF718FDFFF7CEFC0E
:109CB000FFF758FF7F215822304800F0B3F84FF4E7
:109CC000B07200212E4800F0ADF82E48B0220021DD
:109CD00000F0A8F8002445F001050DF10700FFF79A
:109CE000EDFC40B9FFF732FF001B0F2835D84FF4C9
:109CF0004850A847F1E79DF807304D2B16D013D8F0
:109D0000A3F10A02D2B2162A18D81F4921FA02F288
:109D1000D207E2D403F0DF024C2A16D11B4A137893
:109D200083F00103137006E06D2BF3D13378013318
:109D300003F003033370FFF79BFCCEE7A3F130027F
:109D4000D2B2032AE6D83270F5E73F2B01D0482A79
:109D5000C3D10F48FFF77AFCEDE7FFF713FFFFF7DA
:109D60004DFFFFF7C1FDFFF7F1FE0446B5E700BF69
:109D700094B7010070B801000500002030210020D8
:109D8000D01F0020201F00200900400004000020F8
:109D9000BCB7010008B5064B044613B10021AFF370
:109DA0000080044B1B6803B19847204600F016FD65
:109DB00000000000182300200CB430B5184B0C1E16
:109DC0001D689DB008DA8B232B604FF0FF301DB06B
:109DD000BDE8304002B070474FF40273ADF8143064
:109DE0004FF000031B9314BF04F1FF332346049389
:109DF00007934FF6FF7302900690ADF81630209A45
:109E000021AB02A92846019300F09AF8431CBCBF7D
:109E10008B232B60002CDAD0029B00221A70D6E72D
:109E20000800002002440346934200D1704703F823
:109E3000011BF9E770B50D4B0D4D5B1B9C10002607
:109E4000A64209D101F088FC0A4D0B4B5B1B9C100C
:109E50000026A64205D170BD55F8043B984701364F
:109E6000EEE755F8043B98470136F2E7580000202A
:109E700058000020580000205C0000207047704708
:109E80002DE9F0478E681F46BE4282460C4690463A
:109E9000334653D8B1F90C0010F4906F2BD065699C
:109EA0002368096905EB4505A3EB010905EBD575A9
:109EB0007B1C6D104B44AB422A4684BF1D462A468C
:109EC000430527D51146504600F058F9064658B3C9
:109ED00021694A4600F014FCA38923F4906343F0FF
:109EE0008003A381266165614E44A5EB09052660C8
:109EF000A5603E463B461F4620683A46414600F074
:109F000085FBA3689B1BA36023683B442360002060
:109F1000BDE8F087504600F04BFB06460028E1D133
:109F20002169504600F0FAFB0C23CAF80030A389DF
:109F300043F04003A3814FF0FF30E9E73E46DBE703
:109F40002DE9F04F98468B891B069DB007460D46BC
:109F5000144610D50B6973B9402100F00FF9286041
:109F6000286130B90C233B604FF0FF301DB0BDE8D5
:109F7000F08F40236B610023099320238DF8293053
:109F8000CDF80C803023DFF89C818DF82A304FF01B
:109F9000010923469A4613F8012B0AB1252AF9D163
:109FA000BAEB040B0BD05B46224629463846FFF736
:109FB00067FF013000F0A780099A5A4409929AF885
:109FC0000030002B00F09F8000234FF0FF32CDE9DE
:109FD00005230AF1010A049307938DF853301A936D
:109FE0005446052214F8011B4E4800F039FB049A30
:109FF000D8B9D00644BF20238DF85330110744BF91
:10A000002B238DF853309AF800302A2B15D0079A5D
:10A01000544600204FF00A0C214611F8013B303B1A
:10A02000092B4BD9B0B1079214E0A0EB080309FA51
:10A0300003F313430493A246D2E7039B191D1B6845
:10A040000391002BBBBF5B4242F0020207930793D0
:10A05000B8BF049223782E2B0AD163782A2B32D1F1
:10A06000039B1A1D1B68039243EAE37302340593B2
:10A07000DFF8C0A021780322504600F0F1FA38B191
:10A08000049BA0EB0A004022824013430134049356
:10A0900014F8011B24488DF82810062200F0E0FA7D
:10A0A000002836D0214B1BBB039B073323F007034B
:10A0B00008330393099B334409936AE70CFB02328C
:10A0C0000C460120A8E700230134059319464FF000
:10A0D0000A0C204610F8012B303A092A03D9002B2C
:10A0E000C6D00591C4E70CFB012104460123F0E72B
:10A0F00003AB00932A460E4B04A93846AFF3008009
:10A10000421C0646D6D1AB895B063FF52DAF0998B8
:10A110002CE703AB00932A46054B04A9384600F010
:10A120001BF9EDE72EB8010038B80100000000006F
:10A13000819E010034B8010070B50F4E0C463168A5
:10A14000054611B900F07CFA30602146284600F03F
:10A1500077FA431C03D14FF0FF34204670BDC41C76
:10A1600024F00304A042F8D0211A284600F068FA2F
:10A170000130F2D1EFE700BF202300202DE9F843A2
:10A18000CD1C25F0030508350C2D38BF0C25002DFE
:10A19000064601DBA94204D90C2333600020BDE848
:10A1A000F883DFF8D48000F0F7F9D8F800301C46C7
:10A1B00044BB29463046FFF7BFFF431C044658D135
:10A1C000D8F800402746002F43D1002C4BD02368FD
:10A1D0003946304604EB030900F032FA814542D19A
:10A1E00021686D1A29463046FFF7A6FF01303AD0A4
:10A1F00023682B442360D8F800305A6862BBC8F843
:10A2000000700FE02268521B20D40B2A17D9611965
:10A21000A342256018BF5960636808BFC8F80010E2
:10A2200062514B60304600F0BDF904F10B00231D74
:10A2300020F00700C21A1CBF1B1AA350AFE76268C8
:10A24000A3420CBFC8F800205A60EBE723466468BD
:10A25000AEE73C467F68B6E71A465B68A342FBD18F
:10A2600000235360DEE70C233360304600F09AF998
:10A2700094E70560D6E700BF242300202DE9F047CE
:10A28000164698468A680B69DDF820909342B8BF5D
:10A290001346336091F8432007460C460AB1013358
:10A2A00033602368990642BF336802333360256800
:10A2B00015F0060506D104F1190AE36832689B1A05
:10A2C000AB4226DC94F843302268003B18BF0123E0
:10A2D00092062BD404F1430241463846C847013068
:10A2E0001ED02368226903F00603042B02BFE56831
:10A2F0003368ED1AA3680CBF25EAE5750025934283
:10A30000C4BF9B1AED1800261A34B5421AD100209A
:10A3100008E00123524641463846C847013003D180
:10A320004FF0FF30BDE8F0870135C6E7E1185A1C51
:10A33000302081F84300224494F8451082F84310FD
:10A340000233C7E70123224641463846C847013059
:10A35000E6D00136D9E700002DE9FF470F7E0C9EBD
:10A36000782F914680460C469A4601F1430207D861
:10A37000622F0AD8002F00F0D280582F00F0B7804B
:10A3800004F1420684F842703AE0A7F16303152B0A
:10A39000F6D801A151F823F0F1A3010005A40100B2
:10A3A00081A3010081A3010081A3010081A3010019
:10A3B00005A4010081A3010081A3010081A3010084
:10A3C00081A3010005A501002FA40100BBA4010089
:10A3D00081A3010081A3010027A5010081A3010041
:10A3E0002FA4010081A3010081A30100C3A40100E7
:10A3F00033681A1D1B68326004F1420684F842304B
:10A4000001239DE033682068191D3160060601D5DF
:10A410001D6803E04506FBD5B3F90050002D03DAB3
:10A420002D236D4284F8433059480A2310E02168F7
:10A430003368080653F8045B02D4490648BFADB23E
:10A440006F2F5348336059D10823002184F84310FB
:10A450006668A660002E05DB21682E4321F004010A
:10A4600021604DD01646B5FBF3F103FB1157C75DD4
:10A4700006F8017D2F46BB420D46F4D9082B0BD1BF
:10A480002368DF0708D5236961689942DEBF30235E
:10A4900006F8013C06F1FF36921B2261CDF800A0C0
:10A4A0004B4603AA21464046FFF7E8FE01304CD157
:10A4B0004FF0FF3004B0BDE8F087236843F020037D
:10A4C00023603448782784F84570236831681F0674
:10A4D00051F8045B02D45F0648BFADB23160D907C2
:10A4E00044BF43F0200323601DB11023ADE728488B
:10A4F000E9E7236823F020032360F6E70A23A4E7B3
:10A500001646BBE7336825686169181D30602E0662
:10A510001B6801D5196002E06806FBD5198000238D
:10A5200023611646BAE733681A1D32601E686268F6
:10A530000021304600F094F808B1801B6060636829
:10A540002361002384F84330A8E723693246494653
:10A550004046D0470130ABD023689B0713D4E06856
:10A56000039B9842B8BF1846A4E7012332464946E8
:10A570004046D04701309BD00135E36803995B1A10
:10A58000AB42F2DCEBE7002504F11906F5E700BF6A
:10A590003FB8010050B801000148FFF76FBC00BF91
:10A5A0001C2300200148FFF76ABC00BF1C230020C9
:10A5B0002DE9F041074614460D4621B9BDE8F041AA
:10A5C0001146FFF7DBBD2AB900F0A8F8254628465A
:10A5D000BDE8F08100F0ECF88442064602D8B4EB06
:10A5E000500FF4D821463846FFF7C8FD804608B919
:10A5F0004546ECE7B4422246294628BF324600F0E1
:10A600007FF82946384600F089F8F1E7884210B50E
:10A6100001EB020402D98442234607D8431EA1421B
:10A6200007D011F8012B03F8012FF8E7024482420A
:10A6300000D110BD13F8011D02F8011DF7E700005D
:10A6400038B5064D0023044608462B6000F0B8F8E4
:10A65000431C02D12B6803B1236038BD282300209E
:10A6600001F0FF01102A2BDB10F0070F08D010F8C3
:10A67000013B013A8B422DD010F0070F42B3F6D1C7
:10A68000F0B441EA012141EA014122F007047FF0E0
:10A6900000070023F0E80256083C85EA010586EA37
:10A6A000010685FA47F5A3FA87F586FA47F6A5FA73
:10A6B00087F68EB9EED1F0BC01F0FF0102F007027F
:10A6C00032B110F8013B013A83EA010313B1F8D12A
:10A6D0000020704701387047002D06BF354603380B
:10A6E000073815F0010F07D1013015F4807F02BF44
:10A6F000013015F4C03F0130F0BC0138704700BF95
:10A700000A44914200F1FF3300D1704710B511F8AF
:10A71000014B03F8014F9142F9D110BD38B5054600
:10A72000002941D051F8043C0C1F002BB8BFE4189D
:10A73000FFF732FF1D4A136833B96360146028467F
:10A74000BDE83840FFF72EBFA34208D92068211882
:10A750008B4201BF19685B6809182160EDE71A4652
:10A760005B680BB1A342FAD911685018A0420BD113
:10A7700020680144501883421160E0D118685B687A
:10A78000536008441060DAE702D90C232B60D6E747
:10A79000206821188B4204BF19685B68636004BF9E
:10A7A000091821605460CAE738BD00BF2423002087
:10A7B00051F8043C181F002BBCBF0B58C018704741
:10A7C000044A05491368002B08BF0B461844106063
:10A7D000184670472C23002030230020FEE700BFDE
:10A7E00008B52DED028BF0EE408AB0EE608A00F0E5
:10A7F0002FFAF4EE488AF1EE10FA06D6DFED098A58
:10A80000B4EE688AF1EE10FA02D0BDEC028B08BDFE
:10A8100000F09CFF88EEA80ABDEC028B21230360A8
:10A8200008BD00BF00000000F8B52DED028B57EC0D
:10A83000106B55EC114B00F035F830463946224686
:10A840002B46B0EE408AF0EE608A00F019FF30B976
:10A85000002200232046294600F0E0FE30B9B0EE89
:10A86000480AF0EE680ABDEC028BF8BD00F06EFFFE
:10A8700000220023212101601046194600F090FDBE
:10A8800041EC180BB0EE480AF0EE680ABDEC028B02
:10A89000F8BD00BF51EC100B024621F0004343EC21
:10A8A000102B704753EC112B2DE9F04123F000479A
:10A8B00052EA070451EC100B53D0C14C21F0004870
:10A8C000A0458C464DD85442BE4E144347EAD4743A
:10A8D000B442154645D8B8459E46024601F00044AC
:10A8E00049DCC0F2BC80854200F2B98000F00581ED
:10A8F000314250D1B8F1000F3FD10028034640F358
:10A900005481B1495B00002B01F1FF31FADCAD4B02
:10A910000EEA0303002B40F0C680002F40F0F480C5
:10A92000002D2B4600F3A480A848401A1F2800F3EE
:10A93000758101F21E4322FA03F308FA00F8A24ED1
:10A9400043EA080382404FF0150E06F21E4007FA54
:10A950000EFC25FA00F005FA0EF5571B40EA0C0E26
:10A960002EE000F0F3FB02460B4600F019FD41EC2F
:10A97000100BBDE8F08131420DD194494FEAC82354
:10A980005B00002B01F1FF31C1DD5B00002B01F109
:10A99000FF31F5DCBBE78B4B4FEA28500EEA03038F
:10A9A000A0F2FF31002B5DD03F15CCF31303CEF3A3
:10A9B000130EA7F2FF3643F480134EF4801E571B8C
:10A9C000881B411E60B926E001381CD4A2EB050C9F
:10A9D0004FEADC73013903EB40034FEA4C0219D311
:10A9E000AA42A3EB0E00EFD30028A2EB050C0ADB72
:10A9F00050EA0C03ECD1764BE40F03EBC40393ED68
:10AA0000000BBDE8F081D00F013900EB43034FEAA2
:10AA10004202E5D2571BA3EB0E00AA4238BF00F159
:10AA2000FF300028BCBF1746184650EA070305D17F
:10AA3000E1E7FB0F03EB40007F00013EB0F5801F14
:10AA4000F7DB624B9E4242DBA0F5801006F2FF3638
:10AA5000204340EA06533A4643EC102B89E741EC89
:10AA6000100B86E7002F4FD1002D2B4640F3B4800A
:10AA7000554E5B00002B06F1FF36FADC534881424D
:10AA80004ADBA0EB060ECCF31303BEF11F0F43F419
:10AA900080137FF75AAF4F48801B891B05FA00FED1
:10AAA000013900259CE74948401A4FEA275C1F28D6
:10AAB000ACF2FF3652DD474BCEF3130E5B1A891B07
:10AAC00002FA03F34EF4801E0139002288E7A3EB5B
:10AAD000060CBCF1140F51DC06F21E4327FA0CF7EA
:10AAE00000FA03F340FA0CFC4CEA040443EA0700C2
:10AAF0002346024643EC102B3BE7354B03EB147324
:10AB000093ED000B35E73049304EFB025B00002B24
:10AB100006F1FF36FADCB1E7A0EB010CBCF11F0F28
:10AB20000FDCA0EB060E01F21E4322FA03F308FA33
:10AB30000CF8BEF11F0F43EA080302FA0CF2AADC7C
:10AB400003E7A0EB060C2348BCF11F0FA0EB0103A9
:10AB5000E64602FA03F31DDC0022F6E601F21E438C
:10AB600022FA03F308FA00F843EA08038240CEF31E
:10AB7000130E891B4EF4801E013931E7BCF11F0F03
:10AB80000FDC06F21E4327FA0CF700FA03F343EA40
:10AB90000700ADE7801B891B05FA00FE27D00022C5
:10ABA0007EE70C4B9B1B1841A2E7064B0EEA030302
:10ABB0004BB33F150449A7F2FF36C30A4205D6E757
:10ABC000FFFFEF7F0000F07FEDFBFFFF02FCFFFFC8
:10ABD00088B80100E2FBFFFFCCF313034FEAD52E48
:10ABE000194E43F4801300F113016D05F8E6A3EB51
:10ABF0000E0000281EDB3FF4FEAEB0F5801F0F46AE
:10AC0000FFF617AF65E7002F7FF47DAF002D0E49EB
:10AC10002B46D8BF15203FF72BAF8AE60B4B0A4EC9
:10AC20005B1A02FA03F34FEAD52E01F212413A46BB
:10AC30006D05D5E6002B3FF4DEAEB3F5801F184658
:10AC40000F46FFF6F6AE44E7EDFBFFFFE2FBFFFF2A
:10AC500070B582B0CDED010A019820F000435A1E74
:10AC6000B2F1FF4F3BD210EE101A21F00044B4F1C4
:10AC7000FF4F34D29C4238DB01F0004258D011F033
:10AC8000FF4F00F0FF463ED14FEA042C6FF07D05E8
:10AC90004FEA4C0CBCF1000F05F1FF35F8DC002E3B
:10ACA00066D118026FF07D0E40000EF1FF3EFBD51D
:10ACB00015F17E0F77DA6FF07D00411B04FA01F188
:10ACC000A5EB0E05A0EB0E04A340681EA5B9CB1A98
:10ACD000002B75DB2CD0B3F5000F35DB41E0DDED4B
:10ACE000017A60EE277A87EEA70A02B070BD1FD006
:10ACF0004FEA4C01013822D3A1EB030CBCF1000F49
:10AD0000F5DA4900F6E7E51586B3DB15C0F3160062
:10AD1000ED1AC1F31601A3F17F0E41F4000140F4D6
:10AD20000003681E002DE7D1CB1A002B30DB0BD1BE
:10AD3000274B03EB527393ED000A02B070BDCB1AA0
:10AD400048BF0B461BB9F3E75B000EF1FF3EB3F5BE
:10AD5000000FF9DB1EF17E0F1BDA6FF07D04A4EB10
:10AD60000E042341134300EE103ABEE77F3D98E7FF
:10AD7000DB15A3F17F0EC0F316006FF07D0140F4E8
:10AD80000003491BA5EB0E0004FA01F10138B3E7FB
:10AD90000B46A3F500030EF17F0E134343EACE5397
:10ADA00000EE103AA1E76FF07D04C1F31601A5EBA8
:10ADB0000E00A4EB0E0441F400010138A3409BE710
:10ADC0000029B5D0B1F5000F0B46BDDBC9E700BFC8
:10ADD00098B8010081F0004102E000BF83F0004319
:10ADE00030B54FEA41044FEA430594EA050F08BF26
:10ADF00090EA020F1FBF54EA000C55EA020C7FEAEA
:10AE0000645C7FEA655C00F0E2804FEA5454D4EB66
:10AE10005555B8BF6D420CDD2C4480EA020281EA30
:10AE2000030382EA000083EA010180EA020281EA68
:10AE30000303362D88BF30BD11F0004F4FEA0131BA
:10AE40004FF4801C4CEA113102D0404261EB4101C9
:10AE500013F0004F4FEA03334CEA133302D052424F
:10AE600063EB430394EA050F00F0A780A4F101040B
:10AE7000D5F1200E0DDB02FA0EFC22FA05F2801845
:10AE800041F1000103FA0EF2801843FA05F359412B
:10AE90000EE0A5F120050EF1200E012A03FA0EFCAA
:10AEA00028BF4CF0020C43FA05F3C01851EBE371D4
:10AEB00001F0004507D54FF0000EDCF1000C7EEBF1
:10AEC00000006EEB0101B1F5801F1BD3B1F5001F2F
:10AED0000CD349085FEA30004FEA3C0C04F101044E
:10AEE0004FEA445212F5800F80F09A80BCF1004F77
:10AEF00008BF5FEA500C50F1000041EB045141EAF9
:10AF0000050130BD5FEA4C0C404141EB0101013CC1
:10AF100028BFB1F5801FE9D291F0000F04BF0146B0
:10AF20000020B1FA81F308BF2033A3F10B03B3F182
:10AF300020020CDA0C3208DD02F1140CC2F10C0212
:10AF400001FA0CF021FA02F10CE002F11402D8BF70
:10AF5000C2F1200C01FA02F120FA0CFCDCBF41EA3C
:10AF60000C019040E41AA2BF01EB0451294330BD0B
:10AF70006FEA04041F3C1CDA0C340EDC04F11404E8
:10AF8000C4F1200220FA04F001FA02F340EA0300BF
:10AF900021FA04F345EA030130BDC4F10C04C4F105
:10AFA000200220FA02F001FA04F340EA03002946E5
:10AFB00030BD21FA04F0294630BD94F0000F83F42F
:10AFC000801306BF81F480110134013D4EE77FEA12
:10AFD000645C18BF7FEA655C29D094EA050F08BF5E
:10AFE00090EA020F05D054EA000C04BF194610463F
:10AFF00030BD91EA030F1EBF0021002030BD5FEA83
:10B00000545C05D14000494128BF41F0004130BDAA
:10B0100014F580043CBF01F5801130BD01F00045FE
:10B0200045F0FE4141F470014FF0000030BD7FEA71
:10B03000645C1ABF194610467FEA655C1CBF0B466C
:10B04000024650EA013406BF52EA033591EA030F83
:10B0500041F4002130BD00BF90F0000F04BF00217B
:10B06000704730B54FF4806404F132044FF00005AE
:10B070004FF0000150E700BF90F0000F04BF002127
:10B08000704730B54FF4806404F1320410F000458D
:10B0900048BF40424FF000013EE700BF42004FEA88
:10B0A000E2014FEA31014FEA02701FBF12F07F4305
:10B0B00093F07F4F81F06051704732F07F4208BFBC
:10B0C000704793F07F4F04BF41F40021704730B5C3
:10B0D0004FF4607401F0004521F000411CE700BF0F
:10B0E00050EA010208BF704730B54FF000050AE092
:10B0F00050EA010208BF704730B511F0004502D593
:10B10000404261EB41014FF4806404F132045FEA94
:10B11000915C3FF4D8AE4FF003025FEADC0C18BF3D
:10B1200003325FEADC0C18BF033202EBDC02C2F12F
:10B13000200300FA03FC20FA02F001FA03FE40EAC1
:10B140000E0021FA02F11444BDE600BF70B54FF0C5
:10B15000FF0C4CF4E06C1CEA11541DBF1CEA1355A3
:10B1600094EA0C0F95EA0C0F00F0DEF82C4481EA0B
:10B17000030621EA4C5123EA4C5350EA013518BF2B
:10B1800052EA033541F4801143F4801338D0A0FB18
:10B1900002CE4FF00005E1FB02E506F00042E0FBC5
:10B1A00003E54FF00006E1FB03569CF0000F18BFCB
:10B1B0004EF0010EA4F1FF04B6F5007F64F5407473
:10B1C00004D25FEA4E0E6D4146EB060642EAC62106
:10B1D00041EA55514FEAC52040EA5E504FEACE2E73
:10B1E000B4F1FD0C88BFBCF5E06F1ED8BEF1004F76
:10B1F00008BF5FEA500E50F1000041EB045170BDF2
:10B2000006F0004646EA010140EA020081EA030135
:10B21000B4EB5C04C2BFD4EB0C0541EA045170BD31
:10B2200041F480114FF0000E013C00F3AB8014F1AB
:10B23000360FDEBF002001F0004170BDC4F10004F4
:10B24000203C35DA0C341BDC04F11404C4F1200575
:10B2500000FA05F320FA04F001FA05F240EA0200D0
:10B2600001F0004221F0004110EBD37021FA04F606
:10B2700042EB06015EEA430E08BF20EAD37070BDC0
:10B28000C4F10C04C4F1200500FA04F320FA05F01F
:10B2900001FA04F240EA020001F0004110EBD37021
:10B2A00041F100015EEA430E08BF20EAD37070BD91
:10B2B000C4F1200500FA05F24EEA020E20FA04F36A
:10B2C00001FA05F243EA020321FA04F001F0004119
:10B2D00021FA04F220EA020000EBD3705EEA430E8A
:10B2E00008BF20EAD37070BD94F0000F0FD101F0B9
:10B2F0000046400041EB010111F4801F08BF013CF2
:10B30000F7D041EA060195F0000F18BF704703F02F
:10B310000046520043EB030313F4801F08BF013DB6
:10B32000F7D043EA0603704794EA0C0F0CEA135572
:10B3300018BF95EA0C0F0CD050EA410618BF52EA2C
:10B340004306D1D181EA030101F000414FF0000032
:10B3500070BD50EA410606BF1046194652EA430640
:10B3600019D094EA0C0F02D150EA013613D195EAB4
:10B370000C0F05D152EA03361CBF104619460AD1FC
:10B3800081EA030101F0004141F0FE4141F4700106
:10B390004FF0000070BD41F0FE4141F4780170BDF6
:10B3A00070B54FF0FF0C4CF4E06C1CEA11541DBF5B
:10B3B0001CEA135594EA0C0F95EA0C0F00F0A7F85D
:10B3C000A4EB050481EA030E52EA03354FEA01318A
:10B3D00000F088804FEA03334FF0805545EA13139D
:10B3E00043EA12634FEA022245EA111545EA106565
:10B3F0004FEA00260EF000419D4208BF964244F1FC
:10B40000FD0404F5407402D25B084FEA3202B61A1A
:10B4100065EB03055B084FEA32024FF480104FF4EE
:10B42000002CB6EB020E75EB030E22BFB61A754662
:10B4300040EA0C005B084FEA3202B6EB020E75EBF5
:10B44000030E22BFB61A754640EA5C005B084FEA5D
:10B450003202B6EB020E75EB030E22BFB61A75462A
:10B4600040EA9C005B084FEA3202B6EB020E75EB35
:10B47000030E22BFB61A754640EADC0055EA060EF6
:10B4800018D04FEA051545EA16754FEA06164FEA39
:10B49000C30343EA52734FEAC2025FEA1C1CC0D1E5
:10B4A00011F4801F0BD141EA00014FF000004FF072
:10B4B000004CB6E711F4801F04BF01430020B4F133
:10B4C000FD0C88BFBCF5E06F3FF6AFAEB5EB030CEB
:10B4D00004BFB6EB020C5FEA500C50F1000041EBE8
:10B4E000045170BD0EF0004E4EEA113114EB5C04B5
:10B4F000C2BFD4EB0C0541EA045170BD41F4801188
:10B500004FF0000E013C90E645EA060E8DE60CEA8F
:10B51000135594EA0C0F08BF95EA0C0F3FF43BAFAC
:10B5200094EA0C0F0AD150EA01347FF434AF95EA63
:10B530000C0F7FF425AF104619462CE795EA0C0F47
:10B5400006D152EA03353FF4FDAE1046194622E714
:10B5500050EA410618BF52EA43067FF4C5AE50EAEE
:10B5600041047FF40DAF52EA43057FF4EBAE12E7DE
:10B570004FF0FF3C06E000BF4FF0010C02E000BFBF
:10B580004FF0010C4DF804CD4FEA410C7FEA6C5CA2
:10B590004FEA430C18BF7FEA6C5C1BD001B050EA45
:10B5A000410C0CBF52EA430C91EA030F02BF90EA30
:10B5B000020F0020704710F1000F91EA030F58BFEF
:10B5C000994208BF90422CBFD8176FEAE37040F051
:10B5D000010070474FEA410C7FEA6C5C02D150EAEF
:10B5E000013C07D14FEA430C7FEA6C5CD6D152EAAA
:10B5F000033CD3D05DF8040B704700BF844610466F
:10B6000062468C461946634600E000BF01B5FFF76D
:10B61000B7FF002848BF10F1000F01BD4DF808ED3D
:10B62000FFF7F4FF0CBF012000205DF808FB00BF0E
:10B630004DF808EDFFF7EAFF34BF012000205DF868
:10B6400008FB00BF4DF808EDFFF7E0FF94BF0120B5
:10B6500000205DF808FB00BF4DF808EDFFF7CEFFB6
:10B6600094BF012000205DF808FB00BF4DF808EDF5
:10B67000FFF7C4FF34BF012000205DF808FB00BFC6
:10B680004FEA410C7FEA6C5C02D150EA013C0AD1DE
:10B690004FEA430C7FEA6C5C02D152EA033C02D1D0
:10B6A0004FF0000070474FF0010070474FEA410231
:10B6B000B2F1E04324BFB3F5001CDCF1FE5C0DD910
:10B6C00001F0004C4FEAC0024CEA5070B2F1004F5A
:10B6D00040EB830008BF20F00100704711F0804F5D
:10B6E00021D113F13872BCBF01F00040704741F422
:10B6F00080114FEA5252C2F11802C2F1200C10FA26
:10B700000CF320FA02F018BF40F001004FEAC12309
:10B710004FEAD32303FA0CFC40EA0C0023FA02F3AD
:10B720004FEA4303CCE77FEA625307D150EA013383
:10B730001EBF4FF0FE4040F44000704701F0004053
:10B7400040F0FE4040F40000704700BF014B186815
:10B75000704700BF08000020F8B500BFF8BC08BC67
:10B760009E467047F8B500BFF8BC08BC9E467047BF
:10B770004F4E004F4646004C4544206D6F64653D7A
:10B780002575282573292C206F75747075743D25D7
:10B79000730D0A0055415254204C454420636F6E8E
:10B7A00074726F6C2072656164792E20273F2720A8
:10B7B000666F722068656C702E0D0A00434D443A26
:10B7C000206D3D6E657874206D6F64652C20302F80
:10B7D000312F322F333D736574206D6F64652C20DB
:10B7E0006C3D746F67676C65206C65642C203F3D11
:10B7F00068656C700D0A00496E74656E73697479C2
:10B80000436F6C6F7200467265715261696E626F50
:10B810007700546573745261696E626F7700467287
:10B8200065715261696E626F775065616B00232D9F
:10B83000302B2000686C4C00656667454647003039
:10B840003132333435363738394142434445460086
:10B850003031323334353637383961626364656686
:10B8600000000000000000000000000000000000D8
:10B870000338FDD870470000F7B7010006B8010093
:10B8800012B801001EB80100000000000000000016
:10B8900000000000000000800000000000000080A8
:04B8A00000000000A4
:08B8A400E8D9FF7F010000005C
:10B8AC000090D003010300000C00002000000000F9
:10B8BC00E021002048220020B022002000000000DF
:10B8CC00000000000000000000000000000000006C
:10B8DC00000000000000000000000000000000005C
:10B8EC00000000000000000000000000000000004C
:10B8FC00000000000000000069920100419201006C
:04000003100093094D
:00000001FF
